{
  "transactions": [
    {
      "hash": "0x9f2acc26f7f2532a04c1bed33c85f9353b36562db77c20cf275796a57cd64205",
      "transactionType": "CALL",
      "contractName": "BasicNft",
      "contractAddress": "0x18c2d18b11C5A79993e5B96a86518DD7F12f7862",
      "function": "mintNft(string)",
      "arguments": [
        "\"ipfs://bafybeig37ioir76s7mg5oobetncojcm3c3hxasyd4rvid4jqhy4gkaheg4/?filename=0-PUG.json\""
      ],
      "transaction": {
        "type": "0x02",
        "from": "0x2373a942febc0ee428b266bdd58275794e7f1553",
        "to": "0x18c2d18b11c5a79993e5b96a86518dd7f12f7862",
        "gas": "0x3e17c",
        "value": "0x1",
        "data": "0xda86f4a900000000000000000000000000000000000000000000000000000000000000200000000000000000000000000000000000000000000000000000000000000057697066733a2f2f62616679626569673337696f6972373673376d67356f6f6265746e636f6a636d3363336878617379643472766964346a71687934676b61686567342f3f66696c656e616d653d302d5055472e6a736f6e000000000000000000",
        "nonce": "0xbb",
        "accessList": []
      },
      "additionalContracts": [],
      "isFixedGasLimit": false
    }
  ],
  "receipts": [
    {
      "transactionHash": "0x9f2acc26f7f2532a04c1bed33c85f9353b36562db77c20cf275796a57cd64205",
      "transactionIndex": "0x16",
      "blockHash": "0xac55848579b959a5d93cb948310a01153ddc749b170df3f44ea22b6ee20f8a38",
      "blockNumber": "0x61e75c",
      "from": "0x2373a942FEbC0ee428b266bDD58275794E7f1553",
      "to": "0x18c2d18b11C5A79993e5B96a86518DD7F12f7862",
      "cumulativeGasUsed": "0x21f37d",
      "gasUsed": "0x2cf44",
      "contractAddress": null,
      "logs": [
        {
          "address": "0x18c2d18b11C5A79993e5B96a86518DD7F12f7862",
          "topics": [
            "0xddf252ad1be2c89b69c2b068fc378daa952ba7f163c4a11628f55a4df523b3ef",
            "0x0000000000000000000000000000000000000000000000000000000000000000",
            "0x0000000000000000000000002373a942febc0ee428b266bdd58275794e7f1553",
            "0x0000000000000000000000000000000000000000000000000000000000000000"
          ],
          "data": "0x",
          "blockHash": "0xac55848579b959a5d93cb948310a01153ddc749b170df3f44ea22b6ee20f8a38",
          "blockNumber": "0x61e75c",
          "transactionHash": "0x9f2acc26f7f2532a04c1bed33c85f9353b36562db77c20cf275796a57cd64205",
          "transactionIndex": "0x16",
          "logIndex": "0x17",
          "removed": false
        }
      ],
      "status": "0x1",
      "logsBloom": "0x00000000000000000000000000000000000000000000000000000000000000000000000000000000000000000000000000000000080000000000000000000000000000000000000000000008000000000000000000000000000000000000000000000000020000000000000000000800000000000001000000000010000000000000000008000000000000000000000000000000000080000000000000000000000000000000000000000000000000000000000000000000000000000000000000000002000000000000000000000000000000000000000000000000000020000000000000040000000000000000000000000000000000000000000000000080",
      "type": "0x2",
      "effectiveGasPrice": "0xae7bc7985"
    }
  ],
  "libraries": [],
  "pending": [],
  "returns": {},
  "timestamp": 1722514910,
  "chain": 11155111,
  "commit": "e5d9c9a"
}