{
  "transactions": [
    {
      "hash": "0xaf9d4fb00bffaf5e1f43aa5f57da8335a1b7fb65e80d0350eff93faa3841b5ce",
      "transactionType": "CALL",
      "contractName": "BasicNft",
      "contractAddress": "0xbc880D4c6196D66Fee9e7ade3601257046228490",
      "function": "mintNft(string)",
      "arguments": [
        "\"ipfs://bafybeig37ioir76s7mg5oobetncojcm3c3hxasyd4rvid4jqhy4gkaheg4/?filename=0-PUG.json\""
      ],
      "transaction": {
        "type": "0x02",
        "from": "0x2373a942febc0ee428b266bdd58275794e7f1553",
        "to": "0xbc880d4c6196d66fee9e7ade3601257046228490",
        "gas": "0x4121b",
        "value": "0x45",
        "data": "0xda86f4a900000000000000000000000000000000000000000000000000000000000000200000000000000000000000000000000000000000000000000000000000000057697066733a2f2f62616679626569673337696f6972373673376d67356f6f6265746e636f6a636d3363336878617379643472766964346a71687934676b61686567342f3f66696c656e616d653d302d5055472e6a736f6e000000000000000000",
        "nonce": "0xbd",
        "accessList": []
      },
      "additionalContracts": [],
      "isFixedGasLimit": false
    }
  ],
  "receipts": [
    {
      "transactionHash": "0xaf9d4fb00bffaf5e1f43aa5f57da8335a1b7fb65e80d0350eff93faa3841b5ce",
      "transactionIndex": "0x1a",
      "blockHash": "0xe1be7b08d457033f56c5543532a0accd2267dd0370a4f13f05fdeea1a57a1ca7",
      "blockNumber": "0x61e78b",
      "from": "0x2373a942FEbC0ee428b266bDD58275794E7f1553",
      "to": "0xbc880D4c6196D66Fee9e7ade3601257046228490",
      "cumulativeGasUsed": "0x1f3c63",
      "gasUsed": "0x2f278",
      "contractAddress": null,
      "logs": [
        {
          "address": "0xbc880D4c6196D66Fee9e7ade3601257046228490",
          "topics": [
            "0xddf252ad1be2c89b69c2b068fc378daa952ba7f163c4a11628f55a4df523b3ef",
            "0x0000000000000000000000000000000000000000000000000000000000000000",
            "0x0000000000000000000000002373a942febc0ee428b266bdd58275794e7f1553",
            "0x0000000000000000000000000000000000000000000000000000000000000000"
          ],
          "data": "0x",
          "blockHash": "0xe1be7b08d457033f56c5543532a0accd2267dd0370a4f13f05fdeea1a57a1ca7",
          "blockNumber": "0x61e78b",
          "transactionHash": "0xaf9d4fb00bffaf5e1f43aa5f57da8335a1b7fb65e80d0350eff93faa3841b5ce",
          "transactionIndex": "0x1a",
          "logIndex": "0x17",
          "removed": false
        }
      ],
      "status": "0x1",
      "logsBloom": "0x00000000000000000000400000000000000000000000000000000000000000000000000000000000000000000000000000000000000000000000000000000000000000000000000000000008000000000000000000000000000000000000000000000000020000000000000000000800000000000001000000008010000000000000000000000000000000000000000000000000000000000000000000000000000000000000000000000000000000000000000000000000000000000000000000000002000000000000000000000000000000000000000000000000000022000000000000040000000000000000000000000000000000000000000000000080",
      "type": "0x2",
      "effectiveGasPrice": "0x7c1d68c6c"
    }
  ],
  "libraries": [],
  "pending": [],
  "returns": {},
  "timestamp": 1722515528,
  "chain": 11155111,
  "commit": "e5d9c9a"
}