{
  "transactions": [
    {
      "hash": "0xb684d9ebb0018a7d1032822d7dcf3407faeeab4e72df7ba8c10e19206579c667",
      "transactionType": "CALL",
      "contractName": "BasicNft",
      "contractAddress": "0x2e5D276003170699A993f9501B2Aa9dF52F16577",
      "function": "mintNft(string)",
      "arguments": [
        "\"ipfs://bafybeig37ioir76s7mg5oobetncojcm3c3hxasyd4rvid4jqhy4gkaheg4/?filename=0-PUG.json\""
      ],
      "transaction": {
        "type": "0x02",
        "from": "0x2373a942febc0ee428b266bdd58275794e7f1553",
        "to": "0x2e5d276003170699a993f9501b2aa9df52f16577",
        "gas": "0x40ff0",
        "value": "0x0",
        "data": "0xda86f4a900000000000000000000000000000000000000000000000000000000000000200000000000000000000000000000000000000000000000000000000000000057697066733a2f2f62616679626569673337696f6972373673376d67356f6f6265746e636f6a636d3363336878617379643472766964346a71687934676b61686567342f3f66696c656e616d653d302d5055472e6a736f6e000000000000000000",
        "nonce": "0xb9",
        "accessList": []
      },
      "additionalContracts": [],
      "isFixedGasLimit": false
    }
  ],
  "receipts": [
    {
      "transactionHash": "0xb684d9ebb0018a7d1032822d7dcf3407faeeab4e72df7ba8c10e19206579c667",
      "transactionIndex": "0xa",
      "blockHash": "0xbf7f33d8ba089bdb5039d7561472db74ee25c68e790784cd6faacc31cac75393",
      "blockNumber": "0x61e60c",
      "from": "0x2373a942FEbC0ee428b266bDD58275794E7f1553",
      "to": "0x2e5D276003170699A993f9501B2Aa9dF52F16577",
      "cumulativeGasUsed": "0x1d827c",
      "gasUsed": "0x2c712",
      "contractAddress": null,
      "logs": [
        {
          "address": "0x2e5D276003170699A993f9501B2Aa9dF52F16577",
          "topics": [
            "0xddf252ad1be2c89b69c2b068fc378daa952ba7f163c4a11628f55a4df523b3ef",
            "0x0000000000000000000000000000000000000000000000000000000000000000",
            "0x0000000000000000000000002373a942febc0ee428b266bdd58275794e7f1553",
            "0x0000000000000000000000000000000000000000000000000000000000000000"
          ],
          "data": "0x",
          "blockHash": "0xbf7f33d8ba089bdb5039d7561472db74ee25c68e790784cd6faacc31cac75393",
          "blockNumber": "0x61e60c",
          "transactionHash": "0xb684d9ebb0018a7d1032822d7dcf3407faeeab4e72df7ba8c10e19206579c667",
          "transactionIndex": "0xa",
          "logIndex": "0x14",
          "removed": false
        }
      ],
      "status": "0x1",
      "logsBloom": "0x00000000000000000000000000000000000000000000000000000000000000000000000000000004000000000000000000000000000000000000000000000000000000000008000000000008000000000000000000000000000000000000000000000000020000000000000000000800000000000001000000000010000000000000000000000000000000000000000000000000000000000000000000000000008000000000000000000000000000000000000000000000000000000000000000000002000000000000000000000000000000000000000000000000000020000000000000040000000000000000000000000000000000000000000000000080",
      "type": "0x2",
      "effectiveGasPrice": "0x11f3dad6a7"
    }
  ],
  "libraries": [],
  "pending": [],
  "returns": {},
  "timestamp": 1722510196,
  "chain": 11155111,
  "commit": "e5d9c9a"
}